:0400000080EF05F098
:100800000000000E956E000E966E93800F0EC16E66
:1008100004EC05F00C0E6BEC05F0010E6BEC05F032
:10082000820E216E110E226E400ED3EC04F0030EE8
:100830001A6EE80E196E32EC05F0840E216E090E68
:10084000226E480ED3EC04F0030E1A6EE80E196EF9
:1008500032EC05F0860E216E010E226E500ED3ECA6
:1008600004F0130E1A6E880E196E32EC05F0010EAC
:100870006BEC05F0000E1A6E640E196E32EC05F08A
:10088000C20E216E110E226E400ED3EC04F0030E48
:100890001A6EE80E196E32EC05F0C40E216E090EC8
:1008A000226E480ED3EC04F0030E1A6EE80E196E99
:1008B00032EC05F0C60E216E010E226E500ED3EC06
:1008C00004F0130E1A6E880E196E32EC05F0C00E8D
:1008D0006BEC05F0010E6BEC05F010EF04F000EF8F
:1008E00000F0000E1E6E1CBE7AEF04F078EF04F0EC
:1008F00080EF04F01B6C1C1ED8B01C2A010E1E6E6B
:100900001ABE87EF04F085EF04F08DEF04F0196C48
:100910001A1ED8B01A2A010E1E1A000E206E000EE2
:100920001F6E1B501C10D8B498EF04F09AEF04F01F
:10093000C2EF04F0010E1D6EA2EF04F0D8901B363A
:100940001C361D2A1CAEA7EF04F0A9EF04F09EEFA1
:1009500004F0D8901F3620361B50195C1C501A58D2
:10096000D8A0B5EF04F0B7EF04F0BCEF04F01B50D3
:10097000195E1C501A5A1F80D8901C321B321D2E33
:10098000A9EF04F01E50D8B4C8EF04F0CAEF04F089
:10099000CEEF04F01F6C201ED8B0202A1FC019F023
:1009A00020C01AF01200236E000E256E000E246E79
:1009B00023506BEC05F0E6EF04F022502424D96EAE
:1009C000DA6ADF5056EC05F0244A252A255009E161
:1009D000080E245CD8A0EFEF04F0F1EF04F0DDEF97
:1009E00004F021506BEC05F0C00E2324196E1A6A36
:1009F000FF0E1A22000E1C6E080E1B6E71EC04F026
:100A0000195056EC05F0120084928494000E1A6E70
:100A1000140E196E32EC05F08482380E6BEC05F082
:100A2000000E1A6E050E196E32EC05F0380E6BECE6
:100A300005F0000E1A6E010E196E32EC05F0380E3C
:100A40006BEC05F0080E6BEC05F00F0E6BEC05F08F
:100A5000010E6BEC05F0380E6BEC05F0800E6BECC4
:100A600005F01200000E1C6E000E1B6E4AEF05F022
:100A7000000E1D6E000000000000000000001D2A96
:100A8000C70E1D6446EF05F048EF05F03AEF05F09C
:100A90001B4A1C2A19501B5C1A501C58D8A053EF33
:100AA00005F055EF05F038EF05F012001E6E848258
:100AB0001E509FEC05F08484000E1A6E030E196E12
:100AC00032EC05F08492000E1A6E030E196E32ECB1
:100AD00005F0848212001E6E84821E509FEC05F089
:100AE0008494000E1A6E030E196E32EC05F0849297
:100AF000000E1A6E030E196E32EC05F0848212009D
:100B0000260EF66E0B0EF76E000EF86E00EE01F07C
:100B100010EE18F00900F5CFEEFFE550E150FAE1D4
:100B2000000101EF04F001030509090B1B180C1269
:100B30000102040800080A151111110A0400196EB7
:060B400019C083FF120042
:020000040030CA
:0E0000002905181EFF8180FF0FC00FE00F4082
:00000001FF
