:0400000083EF09F091
:10080000002020202044494749544520554D41208F
:070810005445434C41000078
:10081800426E4BEF06F0800E5FEF06F0810E5FEF41
:1008280006F0820E5FEF06F0830E5FEF06F0840E8F
:100838005FEF06F0850E5FEF06F0860E5FEF06F0BD
:10084800870E5FEF06F0880E5FEF06F0890E5FEF08
:1008580006F08A0E5FEF06F08B0E5FEF06F08C0E47
:100868005FEF06F08D0E5FEF06F08E0E5FEF06F07D
:100878008F0E5FEF06F0900E5FEF06F0910E5FEFC0
:1008880006F0920E5FEF06F0930E5FEF06F0415010
:10089800010AD8B40FEF04F0030AD8B412EF04F039
:1008A800010AD8B415EF04F0070AD8B418EF04F019
:1008B800010AD8B41BEF04F0030AD8B41EEF04F001
:1008C800010AD8B421EF04F00F0AD8B424EF04F0D9
:1008D800010AD8B427EF04F0030AD8B42AEF04F0C9
:1008E800010AD8B42DEF04F0070AD8B430EF04F0A9
:1008F800010AD8B433EF04F0030AD8B436EF04F091
:10090800010AD8B439EF04F01F0AD8B43CEF04F058
:10091800010AD8B43FEF04F0030AD8B442EF04F058
:10092800010AD8B445EF04F0070AD8B448EF04F038
:100938005EEF06F0C00E5FEF06F0C10E5FEF06F047
:10094800C20E5FEF06F0C30E5FEF06F0C40E5FEF56
:1009580006F0C50E5FEF06F0C60E5FEF06F0C70E95
:100968005FEF06F0C80E5FEF06F0C90E5FEF06F006
:10097800CA0E5FEF06F0CB0E5FEF06F0CC0E5FEF0E
:1009880006F0CD0E5FEF06F0CE0E5FEF06F0CF0E4D
:100998005FEF06F0D00E5FEF06F0D10E5FEF06F0C6
:1009A800D20E5FEF06F0D30E5FEF06F04150010A5A
:1009B800D8B49EEF04F0030AD8B4A1EF04F0010AFA
:1009C800D8B4A4EF04F0070AD8B4A7EF04F0010ADA
:1009D800D8B4AAEF04F0030AD8B4ADEF04F0010AC2
:1009E800D8B4B0EF04F00F0AD8B4B3EF04F0010A9A
:1009F800D8B4B6EF04F0030AD8B4B9EF04F0010A8A
:100A0800D8B4BCEF04F0070AD8B4BFEF04F0010A69
:100A1800D8B4C2EF04F0030AD8B4C5EF04F0010A51
:100A2800D8B4C8EF04F01F0AD8B4CBEF04F0010A19
:100A3800D8B4CEEF04F0030AD8B4D1EF04F0010A19
:100A4800D8B4D4EF04F0070AD8B4D7EF04F05EEFB7
:100A580006F0940E5FEF06F0950E5FEF06F0960E27
:100A68005FEF06F0970E5FEF06F0980E5FEF06F067
:100A7800990E5FEF06F09A0E5FEF06F09B0E5FEFA0
:100A880006F09C0E5FEF06F09D0E5FEF06F09E0EDF
:100A98005FEF06F09F0E5FEF06F0A00E5FEF06F027
:100AA800A10E5FEF06F0A20E5FEF06F0A30E5FEF58
:100AB80006F0A40E5FEF06F0A50E5FEF06F0A60E97
:100AC8005FEF06F0A70E5FEF06F04150010AD8B4B9
:100AD8002DEF05F0030AD8B430EF05F0010AD8B4B9
:100AE80033EF05F0070AD8B436EF05F0010AD8B499
:100AF80039EF05F0030AD8B43CEF05F0010AD8B481
:100B08003FEF05F00F0AD8B442EF05F0010AD8B458
:100B180045EF05F0030AD8B448EF05F0010AD8B448
:100B28004BEF05F0070AD8B44EEF05F0010AD8B428
:100B380051EF05F0030AD8B454EF05F0010AD8B410
:100B480057EF05F01F0AD8B45AEF05F0010AD8B4D8
:100B58005DEF05F0030AD8B460EF05F0010AD8B4D8
:100B680063EF05F0070AD8B466EF05F05EEF06F00C
:100B7800D40E5FEF06F0D50E5FEF06F0D60E5FEFEE
:100B880006F0D70E5FEF06F0D80E5FEF06F0D90E2D
:100B98005FEF06F0DA0E5FEF06F0DB0E5FEF06F0B0
:100BA800DC0E5FEF06F0DD0E5FEF06F0DE0E5FEFA6
:100BB80006F0DF0E5FEF06F0E00E5FEF06F0E10EE5
:100BC8005FEF06F0E20E5FEF06F0E30E5FEF06F070
:100BD800E40E5FEF06F0E50E5FEF06F0E60E5FEF5E
:100BE80006F0E70E5FEF06F04150010AD8B4BCEFFB
:100BF80005F0030AD8B4BFEF05F0010AD8B4C2EF74
:100C080005F0070AD8B4C5EF05F0010AD8B4C8EF53
:100C180005F0030AD8B4CBEF05F0010AD8B4CEEF3B
:100C280005F00F0AD8B4D1EF05F0010AD8B4D4EF13
:100C380005F0030AD8B4D7EF05F0010AD8B4DAEF03
:100C480005F0070AD8B4DDEF05F0010AD8B4E0EFE3
:100C580005F0030AD8B4E3EF05F0010AD8B4E6EFCB
:100C680005F01F0AD8B4E9EF05F0010AD8B4ECEF93
:100C780005F0030AD8B4EFEF05F0010AD8B4F2EF93
:100C880005F0070AD8B4F5EF05F05EEF06F042501C
:100C9800010AD8B44BEF04F0030AD8B4DAEF04F031
:100CA800010AD8B469EF05F0070AD8B4F8EF05F0DF
:100CB8005EEF06F0000E1200F00E936E000E816ECD
:100CC800000E956E000E966E0F0EC16E55EC09F073
:100CD8000C0E64EC0AF0010E64EC0AF0390E476E53
:100CE800400E30EC0AF0310E476E480E30EC0AF038
:100CF800290E476E500E30EC0AF0210E476E580E42
:100D080030EC0AF0190E476E600E30EC0AF0110E46
:100D1800476E680E30EC0AF0090E476E700E30EC24
:100D28000AF0010E476E780E30EC0AF0010E416EA3
:100D3800010E0CEC04F0496E400E79EC0AF0010E3D
:100D4800416E020E0CEC04F0496E480E79EC0AF084
:100D5800010E416E030E0CEC04F0496E500E79EC56
:100D68000AF0010E416E040E0CEC04F0496E580EA8
:100D780079EC0AF0140E416E010E0CEC04F0496E89
:100D8800600E79EC0AF0140E416E020E0CEC04F0C1
:100D9800496E680E79EC0AF0140E416E030E0CECE5
:100DA80004F0496E700E79EC0AF0140E416E040ED0
:100DB8000CEC04F0496E780E79EC0AF03D0E4C6E9E
:100DC800E10E4B6E400EE82EFED74B2EFCD74C2E74
:100DD800FAD7000E4F6E050E4E6E4EC041F0010E52
:100DE8000CEC04F0496E400E79EC0AF04E4A4F2A9A
:100DF8004FBE08EF07F04F5009E10F0E4E5CD8A028
:100E080008EF07F00AEF07F0F1EF06F03D0E4C6E21
:100E1800E10E4B6E400EE82EFED74B2EFCD74C2E23
:100E2800FAD7000E516E050E506E50C041F0020EFA
:100E38000CEC04F0496E780E79EC0AF0504A512A0D
:100E480051BE30EF07F0515009E10F0E505CD8A0A9
:100E580030EF07F032EF07F019EF07F03D0E4C6E58
:100E6800E10E4B6E400EE82EFED74B2EFCD74C2ED3
:100E7800FAD7000E536E050E526E52C041F0030EA3
:100E88000CEC04F0496E680E79EC0AF0524A532AC9
:100E980053BE58EF07F0535009E10F0E525CD8A02B
:100EA80058EF07F05AEF07F041EF07F03D0E4C6E90
:100EB800E10E4B6E400EE82EFED74B2EFCD74C2E83
:100EC800FAD7000E556E050E546E54C041F0040E4C
:100ED8000CEC04F0496E480E79EC0AF0544A552A95
:100EE80055BE80EF07F0555009E10F0E545CD8A0AD
:100EF80080EF07F082EF07F069EF07F03D0E4C6EC8
:100F0800E10E4B6E400EE82EFED74B2EFCD74C2E32
:100F1800FAD7010E64EC0AF0010E476ECEEC09F028
:100F280096EF07F01EEC09F04D6E200E4D18D8B460
:100F3800A0EF07F0A2EF07F00BEF08F0F4EF07F0CF
:100F4800010E64EC0AF0000E576E050E566E56C080
:100F580041F0010E0CEC04F0496E580E79EC0AF0E1
:100F6800564A572A57BEC2EF07F0575009E10F0EED
:100F7800565CD8A0C2EF07F0C4EF07F0ABEF07F05C
:100F8800010E64EC0AF0020E416E010E0CEC04F046
:100F9800496E580E79EC0AF096EF07F0010E64ECF2
:100FA8000AF0030E416E010E0CEC04F0496E580E67
:100FB80079EC0AF096EF07F0110E416E040E0CEC76
:100FC80004F0496E600E79EC0AF096EF07F0010E16
:100FD80064EC0AF0010E476ECEEC09F096EF07F0CC
:100FE8004D50230AD8B4E0EF07F0120AD8B4A4EFA2
:100FF80007F0030AD8B4C4EF07F0010AD8B4D2EF57
:1010080007F0770AD8B4EBEF07F096EF07F0000E79
:101018008C6E96EF07F000EF00F0200E416E81868F
:10102800818481828190280EE82EFED781B81FEF37
:1010380008F021EF08F023EF08F0310E416E81BA75
:1010480028EF08F02AEF08F02CEF08F0340E416E74
:1010580081BC31EF08F033EF08F035EF08F0370EB8
:10106800416E81BE3AEF08F03CEF08F03EEF08F021
:101078002A0E416E81808192280EE82EFED781B813
:1010880048EF08F04AEF08F04CEF08F0320E416ED6
:1010980081BA51EF08F053EF08F055EF08F0350E1C
:1010A800416E81BC5AEF08F05CEF08F05EEF08F083
:1010B800380E416E81BE63EF08F065EF08F067EF08
:1010C80008F0300E416E81828194280EE82EFED7FA
:1010D80081B871EF08F073EF08F075EF08F0330E80
:1010E800416E81BA7AEF08F07CEF08F07EEF08F0E5
:1010F800360E416E81BC83EF08F085EF08F087EF6C
:1011080008F0390E416E81BE8CEF08F08EEF08F0C2
:1011180090EF08F0230E416E81848196280EE82E08
:10112800FED781B89AEF08F09CEF08F09EEF08F020
:10113800410E416E81BAA3EF08F0A5EF08F0A7EFC2
:1011480008F0420E416E81BCACEF08F0AEEF08F03B
:10115800B0EF08F0430E416E81BEB5EF08F0B7EF6F
:1011680008F0B9EF08F0440E416E81864150120034
:10117800000E466E44BEC5EF08F0C3EF08F0CBEF93
:1011880008F0436C441ED8B0442A010E466E42BE95
:10119800D2EF08F0D0EF08F0D8EF08F0416C421E0B
:1011A800D8B0422A010E461A000E486E000E476E4D
:1011B80043504410D8B4E3EF08F0E5EF08F00DEF22
:1011C80009F0010E456EEDEF08F0D890433644362D
:1011D800452A44AEF2EF08F0F4EF08F0E9EF08F022
:1011E800D890473648364350415C44504258D8A0BE
:1011F80000EF09F002EF09F007EF09F04350415EF4
:101208004450425A4780D89044324332452EF4EF36
:1012180008F04650D8B413EF09F015EF09F019EFAC
:1012280009F0476C481ED8B0482A47C041F048C06A
:1012380042F0120011EC08F0436E200E4318D8B4A7
:1012480028EF09F02AEF09F051EF09F05850D8A417
:1012580030EF09F032EF09F051EF09F0010E586E46
:101268004350D8B43AEF09F03CEF09F051EF09F0D8
:101278009C0E426ED70EE82EFED7422EFCD70000F9
:1012880011EC08F04318D8A44CEF09F04EEF09F020
:1012980051EF09F0435054EF09F0000E586E200E3C
:1012A800120084928490000E426E140E416EAAECD5
:1012B80009F08482380E64EC0AF0000E426E050EC6
:1012C800416EAAEC09F0380E64EC0AF0000E426E8A
:1012D800010E416EAAEC09F0380E64EC0AF0080E13
:1012E80064EC0AF00F0E64EC0AF0010E64EC0AF0EC
:1012F800380E64EC0AF0800E64EC0AF01200200E3E
:10130800F66E140EF76E000EF86E00EE60F010EE3A
:1013180040F00900F5CFEEFFE550E150FAE1E00EAC
:10132800F66E130EF76E000EF86E00EE01F010EE7A
:1013380040F00900F5CFEEFFE550E150FAE1596AB7
:10134800586A000EF86E000160EF06F0000E446E59
:10135800000E436EC2EF09F0000E456E000000005B
:10136800000000000000452AC70E4564BEEF09F0E2
:10137800C0EF09F0B2EF09F0434A442A4150435CF8
:1013880042504458D8A0CBEF09F0CDEF09F0B0EFA8
:1013980009F01200000E496EDEEF09F047504924AB
:1013A800486E48C0F6FF080EF76E0800F5504FEC7F
:1013B8000AF0492A47504924486E48C0F6FF080EEB
:1013C800F76E0800F5500009D8A4EDEF09F0EFEF2B
:1013D80009F0D2EF09F01200040C1404140C0400F4
:1013E800040605040506040000040E15040E040096
:1013F80000000A001F0E0400040E0E04001F0A005D
:10140800000A1F1F1F0E04000004040404150E0424
:10141800040E15040404040004040404140C040059
:10142800040C140404040400040404040506040061
:101438000406050404040400041408040211110E2F
:101448000E11110E000000000C120C0A15091600EE
:10145800040E100C021E0400486E000E4A6E000EA8
:10146800496E485064EC0AF043EF0AF047504924AB
:10147800D96EDA6ADF504FEC0AF0494A4A2A4A50D4
:1014880009E1080E495CD8A04CEF0AF04EEF0AF0CB
:101498003AEF0AF01200466E848246508DEC0AF04C
:1014A8008480000E426E040E416EAAEC09F084920C
:1014B800000E426E040E416EAAEC09F084821200FE
:1014C800466E848246508DEC0AF08490000E426E7F
:1014D800040E416EAAEC09F08492000E426E040ECE
:1014E800416EAAEC09F0848212004A6E495064ECFD
:1014F8000AF0C00E4A24416E426AFF0E4222000ED4
:10150800446E080E436EBCEC08F041504FEC0AF0F4
:0A1518001200416E41C083FF120073
:020000040030CA
:0E0000002905181EFF8180FF0FC00FE00F4082
:00000001FF
