:0400000007EF00F016
:0A0008003D8262ED08F003EF0BF0FB
:100800000047414D45204F564552202D3E524553FD
:100810004554003A000075EF06F0800E94EF06F0A4
:10082000810E94EF06F0820E94EF06F0830E94EFA3
:1008300006F0840E94EF06F0850E94EF06F0860E17
:1008400094EF06F0870E94EF06F0880E94EF06F012
:10085000890E94EF06F08A0E94EF06F08B0E94EF5B
:1008600006F08C0E94EF06F08D0E94EF06F08E0ECF
:1008700094EF06F08F0E94EF06F0900E94EF06F0D2
:10088000910E94EF06F0920E94EF06F0930E94EF13
:1008900006F01FC021F020C022F02250000AD8B478
:1008A00054EF04F093EF06F02150010AD8B40DEF95
:1008B00004F0030AD8B410EF04F0010AD8B413EF1F
:1008C00004F0070AD8B416EF04F0010AD8B419EFFF
:1008D00004F0030AD8B41CEF04F0010AD8B41FEFE7
:1008E00004F00F0AD8B422EF04F0010AD8B425EFBF
:1008F00004F0030AD8B428EF04F0010AD8B42BEFAF
:1009000004F0070AD8B42EEF04F0010AD8B431EF8E
:1009100004F0030AD8B434EF04F0010AD8B437EF76
:1009200004F01F0AD8B43AEF04F0010AD8B43DEF3E
:1009300004F0030AD8B440EF04F0010AD8B443EF3E
:1009400004F0070AD8B446EF04F093EF06F0C00EA7
:1009500094EF06F0C10E94EF06F0C20E94EF06F08D
:10096000C30E94EF06F0C40E94EF06F0C50E94EF9C
:1009700006F0C60E94EF06F0C70E94EF06F0C80E10
:1009800094EF06F0C90E94EF06F0CA0E94EF06F04D
:10099000CB0E94EF06F0CC0E94EF06F0CD0E94EF54
:1009A00006F0CE0E94EF06F0CF0E94EF06F0D00EC8
:1009B00094EF06F0D10E94EF06F0D20E94EF06F00D
:1009C000D30E94EF06F01FC021F020C022F0225079
:1009D000000AD8B4EEEF04F093EF06F02150010ABC
:1009E000D8B4A7EF04F0030AD8B4AAEF04F0010AC0
:1009F000D8B4ADEF04F0070AD8B4B0EF04F0010AA0
:100A0000D8B4B3EF04F0030AD8B4B6EF04F0010A87
:100A1000D8B4B9EF04F00F0AD8B4BCEF04F0010A5F
:100A2000D8B4BFEF04F0030AD8B4C2EF04F0010A4F
:100A3000D8B4C5EF04F0070AD8B4C8EF04F0010A2F
:100A4000D8B4CBEF04F0030AD8B4CEEF04F0010A17
:100A5000D8B4D1EF04F01F0AD8B4D4EF04F0010ADF
:100A6000D8B4D7EF04F0030AD8B4DAEF04F0010ADF
:100A7000D8B4DDEF04F0070AD8B4E0EF04F093EF48
:100A800006F0940E94EF06F0950E94EF06F0960E95
:100A900094EF06F0970E94EF06F0980E94EF06F0A0
:100AA000990E94EF06F09A0E94EF06F09B0E94EFD9
:100AB00006F09C0E94EF06F09D0E94EF06F09E0E4D
:100AC00094EF06F09F0E94EF06F0A00E94EF06F060
:100AD000A10E94EF06F0A20E94EF06F0A30E94EF91
:100AE00006F0A40E94EF06F0A50E94EF06F0A60E05
:100AF00094EF06F0A70E94EF06F01FC021F020C07F
:100B000022F02250000AD8B488EF05F093EF06F0E7
:100B10002150010AD8B441EF05F0030AD8B444EFDC
:100B200005F0010AD8B447EF05F0070AD8B44AEF38
:100B300005F0010AD8B44DEF05F0030AD8B450EF20
:100B400005F0010AD8B453EF05F00F0AD8B456EFF8
:100B500005F0010AD8B459EF05F0030AD8B45CEFE8
:100B600005F0010AD8B45FEF05F0070AD8B462EFC8
:100B700005F0010AD8B465EF05F0030AD8B468EFB0
:100B800005F0010AD8B46BEF05F01F0AD8B46EEF78
:100B900005F0010AD8B471EF05F0030AD8B474EF78
:100BA00005F0010AD8B477EF05F0070AD8B47AEF58
:100BB00005F093EF06F0D40E94EF06F0D50E94EF07
:100BC00006F0D60E94EF06F0D70E94EF06F0D80E8E
:100BD00094EF06F0D90E94EF06F0DA0E94EF06F0DB
:100BE000DB0E94EF06F0DC0E94EF06F0DD0E94EFD2
:100BF00006F0DE0E94EF06F0DF0E94EF06F0E00E46
:100C000094EF06F0E10E94EF06F0E20E94EF06F09A
:100C1000E30E94EF06F0E40E94EF06F0E50E94EF89
:100C200006F0E60E94EF06F0E70E94EF06F01FC014
:100C300021F020C022F02250000AD8B422EF06F0A2
:100C400093EF06F02150010AD8B4DBEF05F0030A58
:100C5000D8B4DEEF05F0010AD8B4E1EF05F0070AD9
:100C6000D8B4E4EF05F0010AD8B4E7EF05F0030AC1
:100C7000D8B4EAEF05F0010AD8B4EDEF05F00F0A99
:100C8000D8B4F0EF05F0010AD8B4F3EF05F0030A89
:100C9000D8B4F6EF05F0010AD8B4F9EF05F0070A69
:100CA000D8B4FCEF05F0010AD8B4FFEF05F0030A51
:100CB000D8B402EF06F0010AD8B405EF06F01F0A17
:100CC000D8B408EF06F0010AD8B40BEF06F0030A17
:100CD000D8B40EEF06F0010AD8B411EF06F0070AF7
:100CE000D8B414EF06F093EF06F01DC021F01EC03B
:100CF00022F02250000AD8B480EF06F093EF06F0FD
:100D00002150010AD8B449EF04F0030AD8B4E3EF44
:100D100004F0010AD8B47DEF05F0070AD8B417EF44
:100D200006F093EF06F0000E1200F00E936E000E28
:100D3000816E000E956E000E966E0F0EC16E66EC03
:100D40000AF00C0E35EC0BF0010E35EC0BF077ECE5
:100D50000BF06CEC0BF0150E236E400EE4EC0AF079
:100D60000D0E236E480EE4EC0AF0010E35EC0BF08C
:100D70000BC01DF00CC01EF0000E206E030E1F6E87
:100D80000BEC04F0256E400E4AEC0BF009C01DF090
:100D90000AC01EF0000E206E110E1F6E0BEC04F048
:100DA000256E400E4AEC0BF005C01DF006C01EF08B
:100DB00007C01FF008C020F00BEC04F0256E480EB1
:100DC0004AEC0BF0010E236E080E94EC0AF039C0C9
:100DD00029F03AC02AF0330E2B6E00EC0AF0316E87
:100DE00031C02CF02D6A53EC09F0010E236E0B0E6E
:100DF00094EC0AF0130E2C6E2C50D8A4080E2D6E15
:100E000053EC09F0000E236E0D0E94EC0AF037C07F
:100E100029F038C02AF0330E2B6E00EC0AF0316E48
:100E200031C02CF02D6A53EC09F0C9EC09F0366E94
:100E3000200E3618D8B41FEF07F021EF07F080EF2F
:100E400007F06DEF07F00CBE2FEF07F00C5009E133
:100E5000020E0B5CD8A02FEF07F031EF07F080EF08
:100E600007F00B06D8A00C0680EF07F00CBE44EF8D
:100E700007F00C5007E1040E0B5CD8B042EF07F00E
:100E800044EF07F080EF07F00B4A0C2A80EF07F0E1
:100E90000ABE54EF07F00A5009E1020E095CD8A01F
:100EA00054EF07F056EF07F080EF07F00906D8A0DF
:100EB0000A0680EF07F00ABE69EF07F00A5007E163
:100EC000040E095CD8B067EF07F069EF07F080EF18
:100ED00007F0094A0A2A80EF07F03650310AD8B4E1
:100EE00023EF07F0030AD8B436EF07F0010AD8B4AD
:100EF00048EF07F0720AD8B45BEF07F080EF07F015
:100F00000A0E39183A10D8A488EF07F08AEF07F0D4
:100F100094EF07F0010E2C6E2C50D8A4080E2D6E05
:100F200053EC09F0B5EF07F00A0E37183810D8A4C3
:100F30009CEF07F09EEF07F0A8EF07F0010E2C6E74
:100F40002C50D8A4080E2D6E53EC09F0B5EF07F025
:100F5000040E326E0C0E316E340EE82EFED7312E9A
:100F6000FCD7322EFAD7B5EF06F007EF00F0200ECF
:100F70001D6E8186818481828190280EE82EFED7A5
:100F800081B8C5EF07F0C7EF07F0C9EF07F0310EE2
:100F90001D6E81BACEEF07F0D0EF07F0D2EF07F069
:100FA000340E1D6E81BCD7EF07F0D9EF07F0DBEFF1
:100FB00007F0370E1D6E81BEE0EF07F0E2EF07F09D
:100FC000E4EF07F02A0E1D6E81808192280EE82E34
:100FD000FED781B8EEEF07F0F0EF07F0F2EF07F081
:100FE000320E1D6E81BAF7EF07F0F9EF07F0FBEF55
:100FF00007F0350E1D6E81BC00EF08F002EF08F01F
:1010000004EF08F0380E1D6E81BE09EF08F00BEFFB
:1010100008F00DEF08F0300E1D6E81828194280ECD
:10102000E82EFED781B817EF08F019EF08F01BEF94
:1010300008F0330E1D6E81BA20EF08F022EF08F0A1
:1010400024EF08F0360E1D6E81BC29EF08F02BEF5F
:1010500008F02DEF08F0390E1D6E81BE32EF08F05A
:1010600034EF08F036EF08F0230E1D6E8184819670
:10107000280EE82EFED781B840EF08F042EF08F0C6
:1010800044EF08F0410E1D6E81BA49EF08F04BEFB6
:1010900008F04DEF08F0420E1D6E81BC52EF08F0D3
:1010A00054EF08F056EF08F0430E1D6E81BE5BEF63
:1010B00008F05DEF08F05FEF08F0440E1D6E8186CA
:1010C0001D5012000600F2A468EF08F06AEF08F065
:1010D000EFEF08F0060ED66E0350072604500822E4
:1010E000015005260250062205040610D8B47BEFF5
:1010F00008F07DEF08F087EF08F0040E05180610E1
:10110000D8A485EF08F087EF08F08BEF08F0016CAA
:10111000021ED8B0022A07040810D8A492EF08F0E3
:1011200094EF08F0A4EF08F00B50051807E10C50FD
:101130000618D8A49EEF08F0A0EF08F0A4EF08F07E
:10114000036C041ED8B0042A140E07180810D8A483
:10115000ACEF08F0AEEF08F0BEEF08F0095005184C
:1011600007E10A500618D8A4B8EF08F0BAEF08F063
:10117000BEEF08F0036C041ED8B0042A120E071844
:101180000810D8A4C6EF08F0C8EF08F0D6EF08F0B2
:10119000394A3A2A000E086E0A0E076E000E066ED5
:1011A000020E056E03680468EEEF08F0020E0718E1
:1011B0000810D8A4DEEF08F0E0EF08F0EEEF08F03A
:1011C000374A382A000E086E0A0E076E000E066EA9
:1011D000020E056E000E046E010E036EF2943D9237
:1011E0001100000E226E20BEFAEF08F0F8EF08F0B2
:1011F00000EF09F01F6C201ED8B0202A010E226ECD
:101200001EBE07EF09F005EF09F00DEF09F01D6CA8
:101210001E1ED8B01E2A010E221A000E246E000EC9
:10122000236E1F502010D8B418EF09F01AEF09F000
:1012300042EF09F0010E216E22EF09F0D8901F361F
:101240002036212A20AE27EF09F029EF09F01EEF02
:1012500009F0D890233624361F501D5C20501E58AC
:10126000D8A035EF09F037EF09F03CEF09F01F5037
:101270001D5E20501E5A2380D89020321F32212E0E
:1012800029EF09F02250D8B448EF09F04AEF09F0ED
:101290004EEF09F0236C241ED8B0242A23C01DF081
:1012A00024C01EF01200000E306E70EF09F03050B6
:1012B0002C242E6E000E2D202F6E2EC0F6FF2FC078
:1012C000F7FFF86A070EF76403D00800F55005D061
:1012D000F6CFE9FFF7CFEAFFEF5020EC0BF0302A12
:1012E00030502C242E6E000E2D202F6E2EC0F6FFB7
:1012F0002FC0F7FFF86A070EF76403D00800F55017
:1013000005D0F6CFE9FFF7CFEAFFEF500009D8A4E8
:101310008CEF09F08EEF09F057EF09F01200000E84
:10132000276E000E266E24502510D8B49AEF09F0CF
:101330009CEF09F0C4EF09F0010E286EA4EF09F04C
:10134000D89024362536282A25AEA9EF09F0ABEF30
:1013500009F0A0EF09F0D890263627362450225CF9
:1013600025502358D8A0B7EF09F0B9EF09F0BEEF28
:1013700009F02450225E2550235A2680D890253229
:101380002432282EABEF09F026C022F027C023F02C
:101390001200B7EC07F01F6E200E1F18D8B4D3EF61
:1013A00009F0D5EF09F0FCEF09F03B50D8A4DBEFD2
:1013B00009F0DDEF09F0FCEF09F0010E3B6E1F5064
:1013C000D8B4E5EF09F0E7EF09F0FCEF09F09C0E67
:1013D0001E6ED70EE82EFED71E2EFCD70000B7ECEF
:1013E00007F01F18D8A4F7EF09F0F9EF09F0FCEFA8
:1013F00009F01F50FFEF09F0000E3B6E200E1200A7
:101400002B50D96EDA6A000E206E640E1F6E29C052
:101410001DF02AC01EF034EC0AF01DC022F01EC0E0
:1014200023F0000E256E0A0E246E8FEC09F0225078
:10143000300FDF6E2B50D96EDA6A010ED92629C023
:101440001DF02AC01EF0000E206E0A0E1F6E34EC36
:101450000AF01D50300FDF6E2B50D96EDA6A020E83
:10146000D926DF6A2B5012001F502010D8B43BEF52
:101470000AF03DEF0AF061EF0AF0010E216E45EF30
:101480000AF0D8901F362036212A20AE4AEF0AF003
:101490004CEF0AF041EF0AF01F501D5C20501E581F
:1014A000D8A055EF0AF057EF0AF05BEF0AF01F5093
:1014B0001D5E20501E5AD89020321F32212E4CEF34
:1014C0000AF01DC01DF01EC01EF012008492849010
:1014D000000E1E6E140E1D6EC0EC0AF08482380ED3
:1014E00035EC0BF0000E1E6E050E1D6EC0EC0AF002
:1014F000380E35EC0BF0000E1E6E010E1D6EC0ECAA
:101500000AF0380E35EC0BF0080E35EC0BF00F0E30
:1015100035EC0BF0010E35EC0BF0380E35EC0BF022
:10152000800E35EC0BF01200246EA7EF0AF0800E4F
:10153000256EBAEF0AF0C00E256EBAEF0AF0940ECF
:10154000256EBAEF0AF0D40E256EBAEF0AF02350DA
:10155000010AD8B497EF0AF0030AD8B49BEF0AF057
:10156000010AD8B49FEF0AF0070AD8B4A3EF0AF033
:1015700097EF0AF024042526255035EC0BF01200D5
:10158000000E206E000E1F6ED8EF0AF0000E216EC6
:1015900000000000000000000000212AC70E2164A6
:1015A000D4EF0AF0D6EF0AF0C8EF0AF01F4A202A5B
:1015B0001D501F5C1E502058D8A0E1EF0AF0E3EF49
:1015C0000AF0C6EF0AF01200246E000E266E000E1E
:1015D000256E245035EC0BF0F7EF0AF0235025244C
:1015E000D96EDA6ADF5020EC0BF0254A262A265005
:1015F00009E1080E255CD8A000EF0BF002EF0BF01C
:10160000EEEF0AF01200BC0EF66E160EF76E000E2C
:10161000F86E00EE01F010EE1CF00900F5CFEEFFC1
:10162000E550E150FAE13C6A3B6A3A6A396A386A45
:10163000376A3D903D92000EF86E000195EF06F07E
:10164000226E8482225073EC0BF08480000E1E6E9A
:10165000040E1D6EC0EC0AF08492000E1E6E040E85
:101660001D6EC0EC0AF084821200226E8482225029
:1016700073EC0BF08490000E1E6E040E1D6EC0EC19
:101680000AF08492000E1E6E040E1D6EC0EC0AF06D
:1016900084821200266E255035EC0BF0C00E2624F5
:1016A0001D6E1E6AFF0E1E22000E206E080E1F6E9B
:1016B000F1EC08F01D5020EC0BF0120001000100CD
:1016C00002000A000200020000000E0E0E0E0000D2
:1016D0000303030303030303850ED56E060ED66EC4
:1016E000F294F28A12001D6E1DC083FF1200F28E6A
:0416F000F28C120066
:020000040030CA
:0E0000002905181EFF8180FF0FC00FE00F4082
:00000001FF
