:0400000007EF00F016
:0A0008004D828EED08F084EF0BF03E
:10080000002A00006CEF06F0800E8BEF06F0810EE0
:100810008BEF06F0820E8BEF06F0830E8BEF06F067
:10082000840E8BEF06F0850E8BEF06F0860E8BEFB5
:1008300006F0870E8BEF06F0880E8BEF06F0890E20
:100840008BEF06F08A0E8BEF06F08B0E8BEF06F027
:100850008C0E8BEF06F08D0E8BEF06F08E0E8BEF6D
:1008600006F08F0E8BEF06F0900E8BEF06F0910ED8
:100870008BEF06F0920E8BEF06F0930E8BEF06F0E7
:100880002DC031F02EC032F03250000AD8B44BEFF8
:1008900004F08AEF06F03150010AD8B404EF04F0F6
:1008A000030AD8B407EF04F0010AD8B40AEF04F041
:1008B000070AD8B40DEF04F0010AD8B410EF04F021
:1008C000030AD8B413EF04F0010AD8B416EF04F009
:1008D0000F0AD8B419EF04F0010AD8B41CEF04F0E1
:1008E000030AD8B41FEF04F0010AD8B422EF04F0D1
:1008F000070AD8B425EF04F0010AD8B428EF04F0B1
:10090000030AD8B42BEF04F0010AD8B42EEF04F098
:100910001F0AD8B431EF04F0010AD8B434EF04F060
:10092000030AD8B437EF04F0010AD8B43AEF04F060
:10093000070AD8B43DEF04F08AEF06F0C00E8BEF43
:1009400006F0C10E8BEF06F0C20E8BEF06F0C30E61
:100950008BEF06F0C40E8BEF06F0C50E8BEF06F0A2
:10096000C60E8BEF06F0C70E8BEF06F0C80E8BEFAE
:1009700006F0C90E8BEF06F0CA0E8BEF06F0CB0E19
:100980008BEF06F0CC0E8BEF06F0CD0E8BEF06F062
:10099000CE0E8BEF06F0CF0E8BEF06F0D00E8BEF66
:1009A00006F0D10E8BEF06F0D20E8BEF06F0D30ED1
:1009B0008BEF06F02DC031F02EC032F03250000A1D
:1009C000D8B4E5EF04F08AEF06F03150010AD8B44C
:1009D0009EEF04F0030AD8B4A1EF04F0010AD8B4E2
:1009E000A4EF04F0070AD8B4A7EF04F0010AD8B4C2
:1009F000AAEF04F0030AD8B4ADEF04F0010AD8B4AA
:100A0000B0EF04F00F0AD8B4B3EF04F0010AD8B481
:100A1000B6EF04F0030AD8B4B9EF04F0010AD8B471
:100A2000BCEF04F0070AD8B4BFEF04F0010AD8B451
:100A3000C2EF04F0030AD8B4C5EF04F0010AD8B439
:100A4000C8EF04F01F0AD8B4CBEF04F0010AD8B401
:100A5000CEEF04F0030AD8B4D1EF04F0010AD8B401
:100A6000D4EF04F0070AD8B4D7EF04F08AEF06F009
:100A7000940E8BEF06F0950E8BEF06F0960E8BEF33
:100A800006F0970E8BEF06F0980E8BEF06F0990E9E
:100A90008BEF06F09A0E8BEF06F09B0E8BEF06F0B5
:100AA0009C0E8BEF06F09D0E8BEF06F09E0E8BEFEB
:100AB00006F09F0E8BEF06F0A00E8BEF06F0A10E56
:100AC0008BEF06F0A20E8BEF06F0A30E8BEF06F075
:100AD000A40E8BEF06F0A50E8BEF06F0A60E8BEFA3
:100AE00006F0A70E8BEF06F02DC031F02EC032F0CD
:100AF0003250000AD8B47FEF05F08AEF06F031508B
:100B0000010AD8B438EF05F0030AD8B43BEF05F07A
:100B1000010AD8B43EEF05F0070AD8B441EF05F05A
:100B2000010AD8B444EF05F0030AD8B447EF05F042
:100B3000010AD8B44AEF05F00F0AD8B44DEF05F01A
:100B4000010AD8B450EF05F0030AD8B453EF05F00A
:100B5000010AD8B456EF05F0070AD8B459EF05F0EA
:100B6000010AD8B45CEF05F0030AD8B45FEF05F0D2
:100B7000010AD8B462EF05F01F0AD8B465EF05F09A
:100B8000010AD8B468EF05F0030AD8B46BEF05F09A
:100B9000010AD8B46EEF05F0070AD8B471EF05F07A
:100BA0008AEF06F0D40E8BEF06F0D50E8BEF06F031
:100BB000D60E8BEF06F0D70E8BEF06F0D80E8BEF2C
:100BC00006F0D90E8BEF06F0DA0E8BEF06F0DB0E97
:100BD0008BEF06F0DC0E8BEF06F0DD0E8BEF06F0F0
:100BE000DE0E8BEF06F0DF0E8BEF06F0E00E8BEFE4
:100BF00006F0E10E8BEF06F0E20E8BEF06F0E30E4F
:100C00008BEF06F0E40E8BEF06F0E50E8BEF06F0AF
:100C1000E60E8BEF06F0E70E8BEF06F02DC031F0FD
:100C20002EC032F03250000AD8B419EF06F08AEF25
:100C300006F03150010AD8B4D2EF05F0030AD8B457
:100C4000D5EF05F0010AD8B4D8EF05F0070AD8B4FB
:100C5000DBEF05F0010AD8B4DEEF05F0030AD8B4E3
:100C6000E1EF05F0010AD8B4E4EF05F00F0AD8B4BB
:100C7000E7EF05F0010AD8B4EAEF05F0030AD8B4AB
:100C8000EDEF05F0010AD8B4F0EF05F0070AD8B48B
:100C9000F3EF05F0010AD8B4F6EF05F0030AD8B473
:100CA000F9EF05F0010AD8B4FCEF05F01F0AD8B43B
:100CB000FFEF05F0010AD8B402EF06F0030AD8B43A
:100CC00005EF06F0010AD8B408EF06F0070AD8B419
:100CD0000BEF06F08AEF06F02FC031F030C032F093
:100CE0003250000AD8B477EF06F08AEF06F03150A0
:100CF000010AD8B440EF04F0030AD8B4DAEF04F0E4
:100D0000010AD8B474EF05F0070AD8B40EEF06F064
:100D10008AEF06F0000E120023EC09F0F00E936E3D
:100D2000000E816E000E956E000E966E0F0EC16E57
:100D300006EC0BF00C0ED9EC0BF0010ED9EC0BF01D
:100D400014EC0CF01D0E336E400EA5EC0BF0150EDE
:100D5000336E400EA5EC0BF00D0E336E480EA5EC75
:100D60000BF0010ED9EC0BF00BC02DF00CC02EF0E7
:100D700007C02FF008C030F002EC04F0356E400ED2
:100D8000EEEC0BF009C02DF00AC02EF005C02FF0DC
:100D900006C030F002EC04F0356E400EEEEC0BF0C5
:100DA00004BEDBEF06F0045008E10304D8A0DBEF3B
:100DB00006F0DDEF06F0EAEF06F001C033F0035075
:100DC00034EC0BF0010E3C6E3C50D8A4080E3D6E86
:100DD000F3EC09F0000E486E000E476E4750060D0A
:100DE000F350640FD96EDA6ADE50DE10D8B4FBEF30
:100DF00006F0FDEF06F017EF07F04750060DF35031
:100E0000620FD96EDA6ADECF2DF0DDCF2EF04750BB
:100E1000060DF350600FD96EDA6ADECF2FF0DDCF0A
:100E200030F002EC04F0356E480EEEEC0BF0474A61
:100E3000482A48BE25EF07F0485009E1090E475CF3
:100E4000D8A025EF07F027EF07F0EEEF06F0010E30
:100E5000336E010E34EC0BF049C039F04AC03AF061
:100E6000430E3B6EA0EC0AF0416E41C03CF03D6A7F
:100E7000F3EC09F069EC0AF0466E200E4618D8B47F
:100E800044EF07F046EF07F0D3EF07F0B8EF07F0B5
:100E900008BE53EF07F0085008E10704D8A053EF4D
:100EA00007F055EF07F0D3EF07F00706D8A00806C4
:100EB000D3EF07F008BE68EF07F0085007E1040E13
:100EC000075CD8B066EF07F068EF07F0D3EF07F0E4
:100ED000074A082AD3EF07F0012806E10228D8A420
:100EE00074EF07F076EF07F0D3EF07F007C001F0DB
:100EF00008C002F00BC003F00CC004F0D3EF07F001
:100F000006BE8BEF07F0065008E10504D8A08BEF72
:100F100007F08DEF07F0D3EF07F00506D8A006061F
:100F2000D3EF07F006BEA0EF07F0065007E1040E6E
:100F3000055CD8B09EEF07F0A0EF07F0D3EF07F005
:100F4000054A062AD3EF07F0012806E10228D8A4B3
:100F5000ACEF07F0AEEF07F0D3EF07F005C001F0FC
:100F600006C002F009C003F00AC004F0D3EF07F096
:100F70004650310AD8B448EF07F0030AD8B45AEF04
:100F800007F0010AD8B46CEF07F0050AD8B480EF77
:100F900007F0010AD8B492EF07F00F0AD8B4A4EF13
:100FA00007F0D3EF07F00A0E426E220E416EA10E3B
:100FB000E82EFED7412EFCD7422EFAD70000B1EF23
:100FC00006F007EF00F0200E2D6E8186818481826D
:100FD0008190280EE82EFED781B8F1EF07F0F3EFED
:100FE00007F0F5EF07F0310E2D6E81BAFAEF07F03A
:100FF000FCEF07F0FEEF07F0340E2D6E81BC03EF1F
:1010000008F005EF08F007EF08F0370E2D6E81BEEF
:101010000CEF08F00EEF08F010EF08F02A0E2D6E1E
:1010200081808192280EE82EFED781B81AEF08F051
:101030001CEF08F01EEF08F0320E2D6E81BA23EF80
:1010400008F025EF08F027EF08F0350E2D6E81BC73
:101050002CEF08F02EEF08F030EF08F0380E2D6E70
:1010600081BE35EF08F037EF08F039EF08F0300EA9
:101070002D6E81828194280EE82EFED781B843EF31
:1010800008F045EF08F047EF08F0330E2D6E81BAF7
:101090004CEF08F04EEF08F050EF08F0360E2D6ED2
:1010A00081BC55EF08F057EF08F059EF08F0390E02
:1010B0002D6E81BE5EEF08F060EF08F062EF08F081
:1010C000230E2D6E81848196280EE82EFED781B8DE
:1010D0006CEF08F06EEF08F070EF08F0410E2D6E27
:1010E00081BA75EF08F077EF08F079EF08F0420E5B
:1010F0002D6E81BC7EEF08F080EF08F082EF08F0E3
:10110000430E2D6E81BE87EF08F089EF08F08BEF5C
:1011100008F0440E2D6E81862D5012000600D9CFA6
:1011200027F0DACF28F0F3CF29F0F4CF2AF0F2A499
:101130009CEF08F09EEF08F019EF09F0060ED66E4E
:1011400004BEABEF08F0045008E10304D8A0ABEFF5
:1011500008F0ADEF08F0BFEF08F004BEBBEF08F0F9
:10116000045007E1140E035CD8B0B9EF08F0BBEFF0
:1011700008F0BFEF08F0034A042AC3EF08F0036841
:10118000046801680268000E2C6E000E2B6E2B5056
:10119000060DF350600FD96EDA6A0150DE1807E1D0
:1011A0000250DE18D8A4D7EF08F0D9EF08F008EF06
:1011B00009F02B50060DF350620FD96EDA6A035016
:1011C000DE1807E10450DE18D8A4E9EF08F0EBEFD1
:1011D00008F008EF09F02B50060DF350640FD96E9C
:1011E000DA6ADE50DE10D8B4F8EF08F0FAEF08F053
:1011F00008EF09F00368046801680268494A4A2A4E
:101200002B50060DF350640FD96EDA6ADE6ADD6A80
:101210002B4A2C2A2CBE16EF09F02C5009E1090E9E
:101220002B5CD8A016EF09F018EF09F0C7EF08F013
:10123000F2942AC0F4FF29C0F3FF28C0DAFF27C0C8
:10124000D9FF4D921100000E0001616F010E606F19
:10125000000E636F0C0E626F000E656F010E646FFF
:10126000000E676F010E666F000E696F0D0E686FDE
:10127000000E6B6F010E6A6F000E6D6F030E6C6FC8
:10128000000E6F6F0E0E6E6F000E716F010E706F9D
:10129000000E736F010E726F000E756F0B0E746F80
:1012A000000E776F010E766F000E796F010E786F6A
:1012B000000E7B6F100E7A6F000E7D6F010E7C6F3B
:1012C000000E7F6F020E7E6F000E816F110E806F19
:1012D000000E836F010E826F000E856F020E846F09
:1012E000000E876F120E866F000E896F010E886FD9
:1012F000000E8B6F020E8A6F000E8D6F130E8C6FB7
:10130000000E8F6F010E8E6F000E916F030E906FA7
:10131000000E936F110E926F000E956F010E946F79
:101320001200000E326E30BE9AEF09F098EF09F00D
:10133000A0EF09F02F6C301ED8B0302A010E326EAB
:101340002EBEA7EF09F0A5EF09F0ADEF09F02D6C67
:101350002E1ED8B02E2A010E321A000E346E000E48
:10136000336E2F503010D8B4B8EF09F0BAEF09F04F
:10137000E2EF09F0010E316EC2EF09F0D8902F367E
:101380003036312A30AEC7EF09F0C9EF09F0BEEFB1
:1013900009F0D890333634362F502D5C30502E580B
:1013A000D8A0D5EF09F0D7EF09F0DCEF09F02F5006
:1013B0002D5E30502E5A3380D89030322F32312E5D
:1013C000C9EF09F03250D8B4E8EF09F0EAEF09F0BC
:1013D000EEEF09F0336C341ED8B0342A33C02DF050
:1013E00034C02EF01200000E406E10EF0AF0405094
:1013F0003C243E6E000E3D203F6E3EC0F6FF3FC0D7
:10140000F7FFF86A070EF76403D00800F55005D01F
:10141000F6CFD9FFF7CFDAFFDF50C4EC0BF0402A4C
:1014200040503C243E6E000E3D203F6E3EC0F6FF15
:101430003FC0F7FFF86A070EF76403D00800F550C5
:1014400005D0F6CFD9FFF7CFDAFFDF500009D8A4D7
:101450002CEF0AF02EEF0AF0F7EF09F01200000E61
:10146000376E000E366E34503510D8B43AEF0AF0AD
:101470003CEF0AF064EF0AF0010E386E44EF0AF018
:10148000D89034363536382A35AE49EF0AF04BEF6E
:101490000AF040EF0AF0D890363637363450325CD6
:1014A00035503358D8A057EF0AF059EF0AF05EEFE5
:1014B0000AF03450325E3550335A3680D890353287
:1014C0003432382E4BEF0AF036C032F037C033F0EA
:1014D0001200E3EC07F02F6E200E2F18D8B473EF34
:1014E0000AF075EF0AF09CEF0AF04B50D8A47BEF9E
:1014F0000AF07DEF0AF09CEF0AF0010E4B6E2F50C0
:10150000D8B485EF0AF087EF0AF09CEF0AF09C0E42
:101510002E6ED70EE82EFED72E2EFCD70000E3EC61
:1015200007F02F18D8A497EF0AF099EF0AF09CEF74
:101530000AF02F509FEF0AF0000E4B6E200E1200A3
:101540003B50D96EDA6A000E306E640E2F6E39C0D1
:101550002DF03AC02EF0D4EC0AF02DC032F02EC09F
:1015600033F0000E356E0A0E346E2FEC0AF0325056
:10157000300FDF6E3B50D96EDA6A010ED92639C0C2
:101580002DF03AC02EF0000E306E0A0E2F6ED4EC05
:101590000AF02D50300FDF6E3B50D96EDA6A020E22
:1015A000D926DF6A3B5012002F503010D8B4DBEF41
:1015B0000AF0DDEF0AF001EF0BF0010E316EE5EFFE
:1015C0000AF0D8902F363036312A30AEEAEF0AF0E2
:1015D000ECEF0AF0E1EF0AF02F502D5C30502E585E
:1015E000D8A0F5EF0AF0F7EF0AF0FBEF0AF02F5062
:1015F0002D5E30502E5AD89030322F32312EECEFF3
:101600000AF02DC02DF02EC02EF01200849284908E
:10161000000E2E6E140E2D6E60EC0BF08482380ED0
:10162000D9EC0BF0000E2E6E050E2D6E60EC0BF05B
:10163000380ED9EC0BF0000E2E6E010E2D6E60EC04
:101640000BF0380ED9EC0BF0080ED9EC0BF00F0EA6
:10165000D9EC0BF0010ED9EC0BF0380ED9EC0BF0F5
:10166000800ED9EC0BF01200346E47EF0BF0800EB9
:10167000356E5AEF0BF0C00E356E5AEF0BF0940E2C
:10168000356E5AEF0BF0D40E356E5AEF0BF0335027
:10169000010AD8B437EF0BF0030AD8B43BEF0BF0D4
:1016A000010AD8B43FEF0BF0070AD8B443EF0BF0B0
:1016B00037EF0BF0340435263550D9EC0BF012001F
:1016C000000E306E000E2F6E78EF0BF0000E316EB4
:1016D00000000000000000000000312AC70E316445
:1016E00074EF0BF076EF0BF068EF0BF02F4A302A17
:1016F0002D502F5C2E503058D8A081EF0BF083EF87
:101700000BF066EF0BF01200040EF66E180EF76E7B
:10171000000EF86E00EE01F010EE24F00900F5CF97
:10172000EEFFE550E150FAE100EE60F0360EEE6AB1
:10173000E806FDE14C6A4B6A4A6A496A4D904D924F
:10174000000EF86E00018CEF06F0346E000E366E5F
:10175000000E356E3450D9EC0BF0B8EF0BF033506F
:101760003524D96EDA6ADF50C4EC0BF0354A362ADC
:10177000365009E1080E355CD8A0C1EF0BF0C3EF7D
:101780000BF0AFEF0BF01200326E848232501CEC83
:101790000CF08480000E2E6E040E2D6E60EC0BF0AB
:1017A0008492000E2E6E040E2D6E60EC0BF084827F
:1017B0001200326E848232501CEC0CF08490000EC9
:1017C0002E6E040E2D6E60EC0BF08492000E2E6EC9
:1017D000040E2D6E60EC0BF084821200366E3550D4
:1017E000D9EC0BF0C00E36242D6E2E6AFF0E2E2281
:1017F000000E306E080E2F6E91EC09F02D50C4ECE7
:101800000BF01200FFFFFFFF0300030004000300C2
:10181000040E0E04001F0A00030F1E01070E040031
:10182000000A1F1F1F0E0400850ED56E060ED66E11
:10183000F294F28AF28E12002D6E2DC083FF1200F8
:020000040030CA
:0E0000002905181EFF8180FF0FC00FE00F4082
:00000001FF
